10002184000001311484239000000000000000000000099000000000141600047201301190000001                                                                                     
30000001A000000009999999JOSE ROBERTO PEREZ HURTADO                                                                           20130119                                
30000001A000000009999999JOSE ROBERTO PEREZ HURTADO                                                                           20130119                                
30000001A000000009999999JOSE ROBERTO PEREZ HURTADO                                                                           20130119                                
30000001A000000009999999JOSE ROBERTO PEREZ HURTADO                                                                           20130119                                
30000001A000000009999999JOSE ROBERTO PEREZ HURTADO                                                                           20130119                                
30000001A000000009999999JOSE ROBERTO PEREZ HURTADO                                                                           20130119                                
30000001A000000009999999JOSE ROBERTO PEREZ HURTADO                                                                           20130119                                
30000001A000000009999999JOSE ROBERTO PEREZ HURTADO                                                                           20130119                                
30000001A000000009999999JOSE ROBERTO PEREZ HURTADO                                                                           20130119                                
30000001A000000049999999JOSE ROBERTO PEREZ HURTADO                                                                           20130119                                
30000001A000000009999999JOSE ROBERTO PEREZ HURTADO                                                                           20130119                                
30000001A000000009999999JOSE ROBERTO PEREZ HURTADO                                                                           20130119                                
30000001A000000009999999JOSE ROBERTO PEREZ HURTADO                                                                           20130119                                
30000001A000000009999999JOSE ROBERTO PEREZ HURTADO                                                                           20130119                                
30000001A000000009999999JOSE ROBERTO PEREZ HURTADO                                                                           20130119                                
30000001A000000019999999JOSE ROBERTO PEREZ HURTADO                                                                           20130119                                
30000001A000000039999999JOSE ROBERTO PEREZ HURTADO                                                                           20130119                                
30000001A000000009999999JOSE ROBERTO PEREZ HURTADO                                                                           20130119                                
30000001A000000009999999JOSE ROBERTO PEREZ HURTADO                                                                           20130119                                
30000001A000000009999999JOSE ROBERTO PEREZ HURTADO                                                                           20130119                                
30000001A000000009999999JOSE ROBERTO PEREZ HURTADO                                                                           20130119                                
30000001A000000009999999JOSE ROBERTO PEREZ HURTADO                                                                           20130119                                
30000001A000000009999999JOSE ROBERTO PEREZ HURTADO                                                                           20130119                                
30000001A000000009999999JOSE ROBERTO PEREZ HURTADO                                                                           20130119                                
30000001A000000009999999JOSE ROBERTO PEREZ HURTADO                                                                           20130119                                
30000001A000000009999999JOSE ROBERTO PEREZ HURTADO                                                                           20130119                                
30000001A000000009999999JOSE ROBERTO PEREZ HURTADO                                                                           20130119                                
30000001A000000009999999JOSE ROBERTO PEREZ HURTADO                                                                           20130119                                
30000001A000000019999999JOSE ROBERTO PEREZ HURTADO                                                                           20130119                                
30000001A000000009999999JOSE ROBERTO PEREZ HURTADO                                                                           20130119                                
30000001A000000009999999JOSE ROBERTO PEREZ HURTADO                                                                           20130119                                
30000001A000000009999999JOSE ROBERTO PEREZ HURTADO                                                                           20130119                                
30000001A000000009999999JOSE ROBERTO PEREZ HURTADO                                                                           20130119                                
30000001A000000009999999JOSE ROBERTO PEREZ HURTADO                                                                           20130119                                
30000001A000000009999999JOSE ROBERTO PEREZ HURTADO                                                                           20130119                                
30000001A000000009999999JOSE ROBERTO PEREZ HURTADO                                                                           20130119                                
30000001A000000009999999JOSE ROBERTO PEREZ HURTADO                                                                           20130119                                
30000001A000000009999999JOSE ROBERTO PEREZ HURTADO                                                                           20130119                                
30000001A000000219999999JOSE ROBERTO PEREZ HURTADO                                                                           20130119                                
30000001A000000009999999JOSE ROBERTO PEREZ HURTADO                                                                           20130119                                
30000001A000000009999999JOSE ROBERTO PEREZ HURTADO                                                                           20130119                                
30000001A000000009999999JOSE ROBERTO PEREZ HURTADO                                                                           20130119                                
30000001A000000009999999JOSE ROBERTO PEREZ HURTADO                                                                           20130119                                
30000001A000000009999999JOSE ROBERTO PEREZ HURTADO                                                                           20130119                                
30000001A000000009999999JOSE ROBERTO PEREZ HURTADO                                                                           20130119                                
30000001A000000009999999JOSE ROBERTO PEREZ HURTADO                                                                           20130119                                
30000001A000000009999999JOSE ROBERTO PEREZ HURTADO                                                                           20130119                                
30000001A000000009999999JOSE ROBERTO PEREZ HURTADO                                                                           20130119                                
30000001A000000009999999JOSE ROBERTO PEREZ HURTADO                                                                           20130119                                
30000001A000000009999999JOSE ROBERTO PEREZ HURTADO                                                                           20130119                                
30000001A000000009999999JOSE ROBERTO PEREZ HURTADO                                                                           20130119                                
30000001A000000009999999JOSE ROBERTO PEREZ HURTADO                                                                           20130119                                
30000001A000000009999999JOSE ROBERTO PEREZ HURTADO                                                                           20130119                                
30000001A000000049999999JOSE ROBERTO PEREZ HURTADO                                                                           20130119                                
30000001A000000009999999JOSE ROBERTO PEREZ HURTADO                                                                           20130119                                
30000001A000000009999999JOSE ROBERTO PEREZ HURTADO                                                                           20130119                                
30000001A000000079999999JOSE ROBERTO PEREZ HURTADO                                                                           20130119                                
30000001A000000009999999JOSE ROBERTO PEREZ HURTADO                                                                           20130119                                
30000001A000000009999999JOSE ROBERTO PEREZ HURTADO                                                                           20130119                                
30000001A000000009999999JOSE ROBERTO PEREZ HURTADO                                                                           20130119                                
30000001A000000009999999JOSE ROBERTO PEREZ HURTADO                                                                           20130119                                
30000001A000000009999999JOSE ROBERTO PEREZ HURTADO                                                                           20130119                                
30000001A000000009999999JOSE ROBERTO PEREZ HURTADO                                                                           20130119                                
30000001A000000009999999JOSE ROBERTO PEREZ HURTADO                                                                           20130119                                
30000001A000000009999999JOSE ROBERTO PEREZ HURTADO                                                                           20130119                                
30000001A000000009999999JOSE ROBERTO PEREZ HURTADO                                                                           20130119                                
30000001A000000009999999JOSE ROBERTO PEREZ HURTADO                                                                           20130119                                
30000001A000000009999999JOSE ROBERTO PEREZ HURTADO                                                                           20130119                                
30000001A000000009999999JOSE ROBERTO PEREZ HURTADO                                                                           20130119                                
30000001A000000009999999JOSE ROBERTO PEREZ HURTADO                                                                           20130119                                
30000001A000000009999999JOSE ROBERTO PEREZ HURTADO                                                                           20130119                                
30000001A000000009999999JOSE ROBERTO PEREZ HURTADO                                                                           20130119                                
30000001A000000009999999JOSE ROBERTO PEREZ HURTADO                                                                           20130119                                
30000001A000000009999999JOSE ROBERTO PEREZ HURTADO                                                                           20130119                                
30000001A000000009999999JOSE ROBERTO PEREZ HURTADO                                                                           20130119                                
30000001A000000019999999JOSE ROBERTO PEREZ HURTADO                                                                           20130119                                
30000001A000000009999999JOSE ROBERTO PEREZ HURTADO                                                                           20130119                                
30000001A000000019999999JOSE ROBERTO PEREZ HURTADO                                                                           20130119                                
30000001A000000009999999JOSE ROBERTO PEREZ HURTADO                                                                           20130119                                
30000001A000000019999999JOSE ROBERTO PEREZ HURTADO                                                                           20130119                                
30000001A000000009999999JOSE ROBERTO PEREZ HURTADO                                                                           20130119                                
30000001A000000039999999JOSE ROBERTO PEREZ HURTADO                                                                           20130119                                
30000001A000000009999999JOSE ROBERTO PEREZ HURTADO                                                                           20130119                                
30000001A000000089999999JOSE ROBERTO PEREZ HURTADO                                                                           20130119                                
30000001A000000009999999JOSE ROBERTO PEREZ HURTADO                                                                           20130119                                
30000001A000000009999999JOSE ROBERTO PEREZ HURTADO                                                                           20130119                                
30000001A000000009999999JOSE ROBERTO PEREZ HURTADO                                                                           20130119                                
30000001A000000059999999JOSE ROBERTO PEREZ HURTADO                                                                           20130119                                
30000001A000000059999999JOSE ROBERTO PEREZ HURTADO                                                                           20130119                                
30000001A000000069999999JOSE ROBERTO PEREZ HURTADO                                                                           20130119                                
30000001A000000059999999JOSE ROBERTO PEREZ HURTADO                                                                           20130119                                
30000001A000000079999999JOSE ROBERTO PEREZ HURTADO                                                                           20130119                                
30000001A000000049999999JOSE ROBERTO PEREZ HURTADO                                                                           20130119                                
30000001A000000009999999JOSE ROBERTO PEREZ HURTADO                                                                           20130119                                
30000001A000000039999999JOSE ROBERTO PEREZ HURTADO                                                                           20130119                                
30000001A000000009999999JOSE ROBERTO PEREZ HURTADO                                                                           20130119                                
30000001A000000009999999JOSE ROBERTO PEREZ HURTADO                                                                           20130119                                
30000001A000000009999999JOSE ROBERTO PEREZ HURTADO                                                                           20130119                                
30000001A000000009999999JOSE ROBERTO PEREZ HURTADO                                                                           20130119                                
30000001A000000009999999JOSE ROBERTO PEREZ HURTADO                                                                           20130119                                
30000001A000000009999999JOSE ROBERTO PEREZ HURTADO                                                                           20130119                                
30000001A000000009999999JOSE ROBERTO PEREZ HURTADO                                                                           20130119                                
30000001A000000009999999JOSE ROBERTO PEREZ HURTADO                                                                           20130119                                
30000001A000000009999999JOSE ROBERTO PEREZ HURTADO                                                                           20130119                                
30000001A000000009999999JOSE ROBERTO PEREZ HURTADO                                                                           20130119                                
30000001A000000009999999JOSE ROBERTO PEREZ HURTADO                                                                           20130119                                
30000001A000000009999999JOSE ROBERTO PEREZ HURTADO                                                                           20130119                                
30000001A000000009999999JOSE ROBERTO PEREZ HURTADO                                                                           20130119                                
30000001A000000009999999JOSE ROBERTO PEREZ HURTADO                                                                           20130119                                
30000001A000000009999999JOSE ROBERTO PEREZ HURTADO                                                                           20130119                                
30000001A000000009999999JOSE ROBERTO PEREZ HURTADO                                                                           20130119                                
30000001A000000009999999JOSE ROBERTO PEREZ HURTADO                                                                           20130119                                
30000001A000000009999999JOSE ROBERTO PEREZ HURTADO                                                                           20130119                                
30000001A000000049999999JOSE ROBERTO PEREZ HURTADO                                                                           20130119                                
30000001A000000009999999JOSE ROBERTO PEREZ HURTADO                                                                           20130119                                
30000001A000000009999999JOSE ROBERTO PEREZ HURTADO                                                                           20130119                                
30000001A000000009999999JOSE ROBERTO PEREZ HURTADO                                                                           20130119                                
30000001A000000009999999JOSE ROBERTO PEREZ HURTADO                                                                           20130119                                
30000001A000000009999999JOSE ROBERTO PEREZ HURTADO                                                                           20130119                                
30000001A000000019999999JOSE ROBERTO PEREZ HURTADO                                                                           20130119                                
30000001A000000039999999JOSE ROBERTO PEREZ HURTADO                                                                           20130119                                
30000001A000000009999999JOSE ROBERTO PEREZ HURTADO                                                                           20130119                                
30000001A000000009999999JOSE ROBERTO PEREZ HURTADO                                                                           20130119                                
30000001A000000009999999JOSE ROBERTO PEREZ HURTADO                                                                           20130119                                
30000001A000000009999999JOSE ROBERTO PEREZ HURTADO                                                                           20130119                                
30000001A000000009999999JOSE ROBERTO PEREZ HURTADO                                                                           20130119                                
30000001A000000009999999JOSE ROBERTO PEREZ HURTADO                                                                           20130119                                
30000001A000000009999999JOSE ROBERTO PEREZ HURTADO                                                                           20130119                                
30000001A000000009999999JOSE ROBERTO PEREZ HURTADO                                                                           20130119                                
30000001A000000009999999JOSE ROBERTO PEREZ HURTADO                                                                           20130119                                
30000001A000000009999999JOSE ROBERTO PEREZ HURTADO                                                                           20130119                                
30000001A000000009999999JOSE ROBERTO PEREZ HURTADO                                                                           20130119                                
30000001A000000019999999JOSE ROBERTO PEREZ HURTADO                                                                           20130119                                
30000001A000000009999999JOSE ROBERTO PEREZ HURTADO                                                                           20130119                                
30000001A000000009999999JOSE ROBERTO PEREZ HURTADO                                                                           20130119                                
30000001A000000009999999JOSE ROBERTO PEREZ HURTADO                                                                           20130119                                
30000001A000000009999999JOSE ROBERTO PEREZ HURTADO                                                                           20130119                                
30000001A000000009999999JOSE ROBERTO PEREZ HURTADO                                                                           20130119                                
30000001A000000009999999JOSE ROBERTO PEREZ HURTADO                                                                           20130119                                
30000001A000000009999999JOSE ROBERTO PEREZ HURTADO                                                                           20130119                                
30000001A000000009999999JOSE ROBERTO PEREZ HURTADO                                                                           20130119                                
30000001A000000009999999JOSE ROBERTO PEREZ HURTADO                                                                           20130119                                
30000001A000000219999999JOSE ROBERTO PEREZ HURTADO                                                                           20130119                                
30000001A000000009999999JOSE ROBERTO PEREZ HURTADO                                                                           20130119                                
30000001A000000009999999JOSE ROBERTO PEREZ HURTADO                                                                           20130119                                
30000001A000000009999999JOSE ROBERTO PEREZ HURTADO                                                                           20130119                                
30000001A000000009999999JOSE ROBERTO PEREZ HURTADO                                                                           20130119                                
30000001A000000009999999JOSE ROBERTO PEREZ HURTADO                                                                           20130119                                
30000001A000000009999999JOSE ROBERTO PEREZ HURTADO                                                                           20130119                                
30000001A000000009999999JOSE ROBERTO PEREZ HURTADO                                                                           20130119                                
30000001A000000009999999JOSE ROBERTO PEREZ HURTADO                                                                           20130119                                
30000001A000000009999999JOSE ROBERTO PEREZ HURTADO                                                                           20130119                                
30000001A000000009999999JOSE ROBERTO PEREZ HURTADO                                                                           20130119                                
30000001A000000009999999JOSE ROBERTO PEREZ HURTADO                                                                           20130119                                
30000001A000000009999999JOSE ROBERTO PEREZ HURTADO                                                                           20130119                                
30000001A000000009999999JOSE ROBERTO PEREZ HURTADO                                                                           20130119                                
30000001A000000009999999JOSE ROBERTO PEREZ HURTADO                                                                           20130119                                
30000001A000000049999999JOSE ROBERTO PEREZ HURTADO                                                                           20130119                                
30000001A000000009999999JOSE ROBERTO PEREZ HURTADO                                                                           20130119                                
30000001A000000009999999JOSE ROBERTO PEREZ HURTADO                                                                           20130119                                
30000001A000000079999999JOSE ROBERTO PEREZ HURTADO                                                                           20130119                                
30000001A000000009999999JOSE ROBERTO PEREZ HURTADO                                                                           20130119                                
30000001A000000009999999JOSE ROBERTO PEREZ HURTADO                                                                           20130119                                
30000001A000000009999999JOSE ROBERTO PEREZ HURTADO                                                                           20130119                                
30000001A000000009999999JOSE ROBERTO PEREZ HURTADO                                                                           20130119                                
30000001A000000009999999JOSE ROBERTO PEREZ HURTADO                                                                           20130119                                
30000001A000000009999999JOSE ROBERTO PEREZ HURTADO                                                                           20130119                                
30000001A000000009999999JOSE ROBERTO PEREZ HURTADO                                                                           20130119                                
30000001A000000009999999JOSE ROBERTO PEREZ HURTADO                                                                           20130119                                
30000001A000000009999999JOSE ROBERTO PEREZ HURTADO                                                                           20130119                                
30000001A000000009999999JOSE ROBERTO PEREZ HURTADO                                                                           20130119                                
30000001A000000009999999JOSE ROBERTO PEREZ HURTADO                                                                           20130119                                
30000001A000000009999999JOSE ROBERTO PEREZ HURTADO                                                                           20130119                                
30000001A000000009999999JOSE ROBERTO PEREZ HURTADO                                                                           20130119                                
30000001A000000009999999JOSE ROBERTO PEREZ HURTADO                                                                           20130119                                
30000001A000000009999999JOSE ROBERTO PEREZ HURTADO                                                                           20130119                                
30000001A000000009999999JOSE ROBERTO PEREZ HURTADO                                                                           20130119                                
30000001A000000009999999JOSE ROBERTO PEREZ HURTADO                                                                           20130119                                
30000001A000000009999999JOSE ROBERTO PEREZ HURTADO                                                                           20130119                                
30000001A000000019999999JOSE ROBERTO PEREZ HURTADO                                                                           20130119                                
30000001A000000009999999JOSE ROBERTO PEREZ HURTADO                                                                           20130119                                
30000001A000000019999999JOSE ROBERTO PEREZ HURTADO                                                                           20130119                                
30000001A000000009999999JOSE ROBERTO PEREZ HURTADO                                                                           20130119                                
30000001A000000019999999JOSE ROBERTO PEREZ HURTADO                                                                           20130119                                
30000001A000000009999999JOSE ROBERTO PEREZ HURTADO                                                                           20130119                                
30000001A000000039999999JOSE ROBERTO PEREZ HURTADO                                                                           20130119                                
30000001A000000009999999JOSE ROBERTO PEREZ HURTADO                                                                           20130119                                
30000001A000000089999999JOSE ROBERTO PEREZ HURTADO                                                                           20130119                                
30000001A000000009999999JOSE ROBERTO PEREZ HURTADO                                                                           20130119                                
30000001A000000009999999JOSE ROBERTO PEREZ HURTADO                                                                           20130119                                
30000001A000000009999999JOSE ROBERTO PEREZ HURTADO                                                                           20130119                                
30000001A000000059999999JOSE ROBERTO PEREZ HURTADO                                                                           20130119                                
30000001A000000059999999JOSE ROBERTO PEREZ HURTADO                                                                           20130119                                
30000001A000000069999999JOSE ROBERTO PEREZ HURTADO                                                                           20130119                                
30000001A000000059999999JOSE ROBERTO PEREZ HURTADO                                                                           20130119                                
30000001A000000079999999JOSE ROBERTO PEREZ HURTADO                                                                           20130119                                
30000001A000000049999999JOSE ROBERTO PEREZ HURTADO                                                                           20130119                                
30000001A000000009999999JOSE ROBERTO PEREZ HURTADO                                                                           20130119                                
30000001A000000039999999JOSE ROBERTO PEREZ HURTADO                                                                           20130119                                
30000001A000000009999999JOSE ROBERTO PEREZ HURTADO                                                                           20130119                                
30000001A000000009999999JOSE ROBERTO PEREZ HURTADO                                                                           20130119                                
30000001A000000009999999JOSE ROBERTO PEREZ HURTADO                                                                           20130119                                
30000001A000000009999999JOSE ROBERTO PEREZ HURTADO                                                                           20130119                                
30000001A000000009999999JOSE ROBERTO PEREZ HURTADO                                                                           20130119                                
30000001A000000009999999JOSE ROBERTO PEREZ HURTADO                                                                           20130119                                
30000001A000000009999999JOSE ROBERTO PEREZ HURTADO                                                                           20130119                                
30000001A000000009999999JOSE ROBERTO PEREZ HURTADO                                                                           20130119                                
30000001A000000009999999JOSE ROBERTO PEREZ HURTADO                                                                           20130119                                
30000001A000000009999999JOSE ROBERTO PEREZ HURTADO                                                                           20130119                                
30000001A000000009999999JOSE ROBERTO PEREZ HURTADO                                                                           20130119                                
30000001A000000009999999JOSE ROBERTO PEREZ HURTADO                                                                           20130119                                
30000001A000000009999999JOSE ROBERTO PEREZ HURTADO                                                                           20130119                                
30000001A000000009999999JOSE ROBERTO PEREZ HURTADO                                                                           20130119                                
30000001A000000009999999JOSE ROBERTO PEREZ HURTADO                                                                           20130119                                
30000001A000000009999999JOSE ROBERTO PEREZ HURTADO                                                                           20130119                                
30000001A000000009999999JOSE ROBERTO PEREZ HURTADO                                                                           20130119                                
30000001A000000009999999JOSE ROBERTO PEREZ HURTADO                                                                           20130119                                
30000001A000000049999999JOSE ROBERTO PEREZ HURTADO                                                                           20130119                                
30000001A000000009999999JOSE ROBERTO PEREZ HURTADO                                                                           20130119                                
30000001A000000009999999JOSE ROBERTO PEREZ HURTADO                                                                           20130119                                
30000001A000000009999999JOSE ROBERTO PEREZ HURTADO                                                                           20130119                                
30000001A000000009999999JOSE ROBERTO PEREZ HURTADO                                                                           20130119                                
30000001A000000009999999JOSE ROBERTO PEREZ HURTADO                                                                           20130119                                
30000001A000000019999999JOSE ROBERTO PEREZ HURTADO                                                                           20130119                                
30000001A000000039999999JOSE ROBERTO PEREZ HURTADO                                                                           20130119                                
30000001A000000009999999JOSE ROBERTO PEREZ HURTADO                                                                           20130119                                
30000001A000000009999999JOSE ROBERTO PEREZ HURTADO                                                                           20130119                                
30000001A000000009999999JOSE ROBERTO PEREZ HURTADO                                                                           20130119                                
30000001A000000009999999JOSE ROBERTO PEREZ HURTADO                                                                           20130119                                
30000001A000000009999999JOSE ROBERTO PEREZ HURTADO                                                                           20130119                                
30000001A000000009999999JOSE ROBERTO PEREZ HURTADO                                                                           20130119                                
30000001A000000009999999JOSE ROBERTO PEREZ HURTADO                                                                           20130119                                
30000001A000000009999999JOSE ROBERTO PEREZ HURTADO                                                                           20130119                                
30000001A000000009999999JOSE ROBERTO PEREZ HURTADO                                                                           20130119                                
30000001A000000009999999JOSE ROBERTO PEREZ HURTADO                                                                           20130119                                
30000001A000000009999999JOSE ROBERTO PEREZ HURTADO                                                                           20130119                                
30000001A000000019999999JOSE ROBERTO PEREZ HURTADO                                                                           20130119                                
30000001A000000009999999JOSE ROBERTO PEREZ HURTADO                                                                           20130119                                
30000001A000000009999999JOSE ROBERTO PEREZ HURTADO                                                                           20130119                                
30000001A000000009999999JOSE ROBERTO PEREZ HURTADO                                                                           20130119                                
30000001A000000009999999JOSE ROBERTO PEREZ HURTADO                                                                           20130119                                
30000001A000000009999999JOSE ROBERTO PEREZ HURTADO                                                                           20130119                                
30000001A000000009999999JOSE ROBERTO PEREZ HURTADO                                                                           20130119                                
30000001A000000009999999JOSE ROBERTO PEREZ HURTADO                                                                           20130119                                
30000001A000000009999999JOSE ROBERTO PEREZ HURTADO                                                                           20130119                                
30000001A000000009999999JOSE ROBERTO PEREZ HURTADO                                                                           20130119                                
30000001A000000219999999JOSE ROBERTO PEREZ HURTADO                                                                           20130119                                
30000001A000000009999999JOSE ROBERTO PEREZ HURTADO                                                                           20130119                                
30000001A000000009999999JOSE ROBERTO PEREZ HURTADO                                                                           20130119                                
30000001A000000009999999JOSE ROBERTO PEREZ HURTADO                                                                           20130119                                
30000001A000000009999999JOSE ROBERTO PEREZ HURTADO                                                                           20130119                                
30000001A000000009999999JOSE ROBERTO PEREZ HURTADO                                                                           20130119                                
30000001A000000009999999JOSE ROBERTO PEREZ HURTADO                                                                           20130119                                
30000001A000000009999999JOSE ROBERTO PEREZ HURTADO                                                                           20130119                                
30000001A000000009999999JOSE ROBERTO PEREZ HURTADO                                                                           20130119                                
30000001A000000009999999JOSE ROBERTO PEREZ HURTADO                                                                           20130119                                
30000001A000000009999999JOSE ROBERTO PEREZ HURTADO                                                                           20130119                                
30000001A000000009999999JOSE ROBERTO PEREZ HURTADO                                                                           20130119                                
30000001A000000009999999JOSE ROBERTO PEREZ HURTADO                                                                           20130119                                
30000001A000000009999999JOSE ROBERTO PEREZ HURTADO                                                                           20130119                                
30000001A000000009999999JOSE ROBERTO PEREZ HURTADO                                                                           20130119                                
30000001A000000049999999JOSE ROBERTO PEREZ HURTADO                                                                           20130119                                
30000001A000000009999999JOSE ROBERTO PEREZ HURTADO                                                                           20130119                                
30000001A000000009999999JOSE ROBERTO PEREZ HURTADO                                                                           20130119                                
30000001A000000079999999JOSE ROBERTO PEREZ HURTADO                                                                           20130119                                
30000001A000000009999999JOSE ROBERTO PEREZ HURTADO                                                                           20130119                                
30000001A000000009999999JOSE ROBERTO PEREZ HURTADO                                                                           20130119                                
30000001A000000009999999JOSE ROBERTO PEREZ HURTADO                                                                           20130119                                
30000001A000000009999999JOSE ROBERTO PEREZ HURTADO                                                                           20130119                                
30000001A000000009999999JOSE ROBERTO PEREZ HURTADO                                                                           20130119                                
30000001A000000009999999JOSE ROBERTO PEREZ HURTADO                                                                           20130119                                
30000001A000000009999999JOSE ROBERTO PEREZ HURTADO                                                                           20130119                                
30000001A000000009999999JOSE ROBERTO PEREZ HURTADO                                                                           20130119                                
30000001A000000009999999JOSE ROBERTO PEREZ HURTADO                                                                           20130119                                
30000001A000000009999999JOSE ROBERTO PEREZ HURTADO                                                                           20130119                                
30000001A000000009999999JOSE ROBERTO PEREZ HURTADO                                                                           20130119                                
30000001A000000009999999JOSE ROBERTO PEREZ HURTADO                                                                           20130119                                
30000001A000000009999999JOSE ROBERTO PEREZ HURTADO                                                                           20130119                                
30000001A000000009999999JOSE ROBERTO PEREZ HURTADO                                                                           20130119                                
30000001A000000009999999JOSE ROBERTO PEREZ HURTADO                                                                           20130119                                
30000001A000000009999999JOSE ROBERTO PEREZ HURTADO                                                                           20130119                                
30000001A000000009999999JOSE ROBERTO PEREZ HURTADO                                                                           20130119                                
30000001A000000009999999JOSE ROBERTO PEREZ HURTADO                                                                           20130119                                
30000001A000000019999999JOSE ROBERTO PEREZ HURTADO                                                                           20130119                                
30000001A000000009999999JOSE ROBERTO PEREZ HURTADO                                                                           20130119                                
30000001A000000019999999JOSE ROBERTO PEREZ HURTADO                                                                           20130119                                
30000001A000000009999999JOSE ROBERTO PEREZ HURTADO                                                                           20130119                                
30000001A000000019999999JOSE ROBERTO PEREZ HURTADO                                                                           20130119                                
30000001A000000009999999JOSE ROBERTO PEREZ HURTADO                                                                           20130119                                
30000001A000000039999999JOSE ROBERTO PEREZ HURTADO                                                                           20130119                                
30000001A000000009999999JOSE ROBERTO PEREZ HURTADO                                                                           20130119                                
30000001A000000089999999JOSE ROBERTO PEREZ HURTADO                                                                           20130119                                
30000001A000000009999999JOSE ROBERTO PEREZ HURTADO                                                                           20130119                                
30000001A000000009999999JOSE ROBERTO PEREZ HURTADO                                                                           20130119                                
30000001A000000009999999JOSE ROBERTO PEREZ HURTADO                                                                           20130119                                
30000001A000000059999999JOSE ROBERTO PEREZ HURTADO                                                                           20130119                                
30000001A000000059999999JOSE ROBERTO PEREZ HURTADO                                                                           20130119                                
30000001A000000069999999JOSE ROBERTO PEREZ HURTADO                                                                           20130119                                
30000001A000000059999999JOSE ROBERTO PEREZ HURTADO                                                                           20130119                                
30000001A000000079999999JOSE ROBERTO PEREZ HURTADO                                                                           20130119                                
30000001A000000049999999JOSE ROBERTO PEREZ HURTADO                                                                           20130119                                
30000001A000000009999999JOSE ROBERTO PEREZ HURTADO                                                                           20130119                                
30000001A000000039999999JOSE ROBERTO PEREZ HURTADO                                                                           20130119                                
30000001A000000009999999JOSE ROBERTO PEREZ HURTADO                                                                           20130119                                
30000001A000000009999999JOSE ROBERTO PEREZ HURTADO                                                                           20130119                                
30000001A000000009999999JOSE ROBERTO PEREZ HURTADO                                                                           20130119                                
30000001A000000009999999JOSE ROBERTO PEREZ HURTADO                                                                           20130119                                
30000001A000000009999999JOSE ROBERTO PEREZ HURTADO                                                                           20130119                                
30000001A000000009999999JOSE ROBERTO PEREZ HURTADO                                                                           20130119                                
30000001A000000009999999JOSE ROBERTO PEREZ HURTADO                                                                           20130119                                
30000001A000000009999999JOSE ROBERTO PEREZ HURTADO                                                                           20130119                                
30000001A000000009999999JOSE ROBERTO PEREZ HURTADO                                                                           20130119                                
30000001A000000009999999JOSE ROBERTO PEREZ HURTADO                                                                           20130119                                
30000001A000000009999999JOSE ROBERTO PEREZ HURTADO                                                                           20130119                                
30000001A000000009999999JOSE ROBERTO PEREZ HURTADO                                                                           20130119                                
30000001A000000009999999JOSE ROBERTO PEREZ HURTADO                                                                           20130119                                
30000001A000000009999999JOSE ROBERTO PEREZ HURTADO                                                                           20130119                                
30000001A000000009999999JOSE ROBERTO PEREZ HURTADO                                                                           20130119                                
30000001A000000009999999JOSE ROBERTO PEREZ HURTADO                                                                           20130119                                
30000001A000000009999999JOSE ROBERTO PEREZ HURTADO                                                                           20130119                                
30000001A000000009999999JOSE ROBERTO PEREZ HURTADO                                                                           20130119                                
30000001A000000049999999JOSE ROBERTO PEREZ HURTADO                                                                           20130119                                
30000001A000000009999999JOSE ROBERTO PEREZ HURTADO                                                                           20130119                                
30000001A000000009999999JOSE ROBERTO PEREZ HURTADO                                                                           20130119                                
30000001A000000009999999JOSE ROBERTO PEREZ HURTADO                                                                           20130119                                
30000001A000000009999999JOSE ROBERTO PEREZ HURTADO                                                                           20130119                                
30000001A000000009999999JOSE ROBERTO PEREZ HURTADO                                                                           20130119                                
30000001A000000019999999JOSE ROBERTO PEREZ HURTADO                                                                           20130119                                
30000001A000000039999999JOSE ROBERTO PEREZ HURTADO                                                                           20130119                                
30000001A000000009999999JOSE ROBERTO PEREZ HURTADO                                                                           20130119                                
30000001A000000009999999JOSE ROBERTO PEREZ HURTADO                                                                           20130119                                
30000001A000000009999999JOSE ROBERTO PEREZ HURTADO                                                                           20130119                                
30000001A000000009999999JOSE ROBERTO PEREZ HURTADO                                                                           20130119                                
30000001A000000009999999JOSE ROBERTO PEREZ HURTADO                                                                           20130119                                
30000001A000000009999999JOSE ROBERTO PEREZ HURTADO                                                                           20130119                                
30000001A000000009999999JOSE ROBERTO PEREZ HURTADO                                                                           20130119                                
30000001A000000009999999JOSE ROBERTO PEREZ HURTADO                                                                           20130119                                
30000001A000000009999999JOSE ROBERTO PEREZ HURTADO                                                                           20130119                                
30000001A000000009999999JOSE ROBERTO PEREZ HURTADO                                                                           20130119                                
30000001A000000009999999JOSE ROBERTO PEREZ HURTADO                                                                           20130119                                
30000001A000000019999999JOSE ROBERTO PEREZ HURTADO                                                                           20130119                                
30000001A000000009999999JOSE ROBERTO PEREZ HURTADO                                                                           20130119                                
30000001A000000009999999JOSE ROBERTO PEREZ HURTADO                                                                           20130119                                
30000001A000000009999999JOSE ROBERTO PEREZ HURTADO                                                                           20130119                                
30000001A000000009999999JOSE ROBERTO PEREZ HURTADO                                                                           20130119                                
30000001A000000009999999JOSE ROBERTO PEREZ HURTADO                                                                           20130119                                
30000001A000000009999999JOSE ROBERTO PEREZ HURTADO                                                                           20130119                                
30000001A000000009999999JOSE ROBERTO PEREZ HURTADO                                                                           20130119                                
30000001A000000009999999JOSE ROBERTO PEREZ HURTADO                                                                           20130119                                
30000001A000000009999999JOSE ROBERTO PEREZ HURTADO                                                                           20130119                                
30000001A000000219999999JOSE ROBERTO PEREZ HURTADO                                                                           20130119                                
30000001A000000009999999JOSE ROBERTO PEREZ HURTADO                                                                           20130119                                
30000001A000000009999999JOSE ROBERTO PEREZ HURTADO                                                                           20130119                                
30000001A000000009999999JOSE ROBERTO PEREZ HURTADO                                                                           20130119                                
30000001A000000009999999JOSE ROBERTO PEREZ HURTADO                                                                           20130119                                
30000001A000000009999999JOSE ROBERTO PEREZ HURTADO                                                                           20130119                                
30000001A000000009999999JOSE ROBERTO PEREZ HURTADO                                                                           20130119                                
30000001A000000009999999JOSE ROBERTO PEREZ HURTADO                                                                           20130119                                
30000001A000000009999999JOSE ROBERTO PEREZ HURTADO                                                                           20130119                                
30000001A000000009999999JOSE ROBERTO PEREZ HURTADO                                                                           20130119                                
30000001A000000009999999JOSE ROBERTO PEREZ HURTADO                                                                           20130119                                
30000001A000000009999999JOSE ROBERTO PEREZ HURTADO                                                                           20130119                                
30000001A000000009999999JOSE ROBERTO PEREZ HURTADO                                                                           20130119                                
30000001A000000009999999JOSE ROBERTO PEREZ HURTADO                                                                           20130119                                
30000001A000000009999999JOSE ROBERTO PEREZ HURTADO                                                                           20130119                                
30000001A000000049999999JOSE ROBERTO PEREZ HURTADO                                                                           20130119                                
30000001A000000009999999JOSE ROBERTO PEREZ HURTADO                                                                           20130119                                
30000001A000000009999999JOSE ROBERTO PEREZ HURTADO                                                                           20130119                                
30000001A000000079999999JOSE ROBERTO PEREZ HURTADO                                                                           20130119                                
30000001A000000009999999JOSE ROBERTO PEREZ HURTADO                                                                           20130119                                
30000001A000000009999999JOSE ROBERTO PEREZ HURTADO                                                                           20130119                                
30000001A000000009999999JOSE ROBERTO PEREZ HURTADO                                                                           20130119                                
30000001A000000009999999JOSE ROBERTO PEREZ HURTADO                                                                           20130119                                
30000001A000000009999999JOSE ROBERTO PEREZ HURTADO                                                                           20130119                                
30000001A000000009999999JOSE ROBERTO PEREZ HURTADO                                                                           20130119                                
30000001A000000009999999JOSE ROBERTO PEREZ HURTADO                                                                           20130119                                
30000001A000000009999999JOSE ROBERTO PEREZ HURTADO                                                                           20130119                                
30000001A000000009999999JOSE ROBERTO PEREZ HURTADO                                                                           20130119                                
30000001A000000009999999JOSE ROBERTO PEREZ HURTADO                                                                           20130119                                
30000001A000000009999999JOSE ROBERTO PEREZ HURTADO                                                                           20130119                                
30000001A000000009999999JOSE ROBERTO PEREZ HURTADO                                                                           20130119                                
30000001A000000009999999JOSE ROBERTO PEREZ HURTADO                                                                           20130119                                
30000001A000000009999999JOSE ROBERTO PEREZ HURTADO                                                                           20130119                                
30000001A000000009999999JOSE ROBERTO PEREZ HURTADO                                                                           20130119                                
30000001A000000009999999JOSE ROBERTO PEREZ HURTADO                                                                           20130119                                
30000001A000000009999999JOSE ROBERTO PEREZ HURTADO                                                                           20130119                                
30000001A000000009999999JOSE ROBERTO PEREZ HURTADO                                                                           20130119                                
30000001A000000019999999JOSE ROBERTO PEREZ HURTADO                                                                           20130119                                
30000001A000000009999999JOSE ROBERTO PEREZ HURTADO                                                                           20130119                                
30000001A000000019999999JOSE ROBERTO PEREZ HURTADO                                                                           20130119                                
30000001A000000009999999JOSE ROBERTO PEREZ HURTADO                                                                           20130119                                
30000001A000000019999999JOSE ROBERTO PEREZ HURTADO                                                                           20130119                                
30000001A000000009999999JOSE ROBERTO PEREZ HURTADO                                                                           20130119                                
30000001A000000039999999JOSE ROBERTO PEREZ HURTADO                                                                           20130119                                
30000001A000000009999999JOSE ROBERTO PEREZ HURTADO                                                                           20130119                                
30000001A000000089999999JOSE ROBERTO PEREZ HURTADO                                                                           20130119                                
30000001A000000009999999JOSE ROBERTO PEREZ HURTADO                                                                           20130119                                
30000001A000000009999999JOSE ROBERTO PEREZ HURTADO                                                                           20130119                                
30000001A000000009999999JOSE ROBERTO PEREZ HURTADO                                                                           20130119                                
30000001A000000059999999JOSE ROBERTO PEREZ HURTADO                                                                           20130119                                
30000001A000000059999999JOSE ROBERTO PEREZ HURTADO                                                                           20130119                                
30000001A000000069999999JOSE ROBERTO PEREZ HURTADO                                                                           20130119                                
30000001A000000059999999JOSE ROBERTO PEREZ HURTADO                                                                           20130119                                
30000001A000000079999999JOSE ROBERTO PEREZ HURTADO                                                                           20130119                                
30000001A000000049999999JOSE ROBERTO PEREZ HURTADO                                                                           20130119                                
30000001A000000009999999JOSE ROBERTO PEREZ HURTADO                                                                           20130119                                
30000001A000000039999999JOSE ROBERTO PEREZ HURTADO                                                                           20130119                                
30000001A000000009999999JOSE ROBERTO PEREZ HURTADO                                                                           20130119                                
30000001A000000009999999JOSE ROBERTO PEREZ HURTADO                                                                           20130119                                
30000001A000000009999999JOSE ROBERTO PEREZ HURTADO                                                                           20130119                                
30000001A000000009999999JOSE ROBERTO PEREZ HURTADO                                                                           20130119                                
30000001A000000009999999JOSE ROBERTO PEREZ HURTADO                                                                           20130119                                
30000001A000000009999999JOSE ROBERTO PEREZ HURTADO                                                                           20130119                                
30000001A000000009999999JOSE ROBERTO PEREZ HURTADO                                                                           20130119                                
30000001A000000009999999JOSE ROBERTO PEREZ HURTADO                                                                           20130119                                
30000001A000000009999999JOSE ROBERTO PEREZ HURTADO                                                                           20130119                                
30000001A000000009999999JOSE ROBERTO PEREZ HURTADO                                                                           20130119                                
30000001A000000009999999JOSE ROBERTO PEREZ HURTADO                                                                           20130119                                
30000001A000000009999999JOSE ROBERTO PEREZ HURTADO                                                                           20130119                                
30000001A000000009999999JOSE ROBERTO PEREZ HURTADO                                                                           20130119                                
30000001A000000009999999JOSE ROBERTO PEREZ HURTADO                                                                           20130119                                
30000001A000000009999999JOSE ROBERTO PEREZ HURTADO                                                                           20130119                                
30000001A000000009999999JOSE ROBERTO PEREZ HURTADO                                                                           20130119                                
30000001A000000009999999JOSE ROBERTO PEREZ HURTADO                                                                           20130119                                
30000001A000000009999999JOSE ROBERTO PEREZ HURTADO                                                                           20130119                                
30000001A000000049999999JOSE ROBERTO PEREZ HURTADO                                                                           20130119                                
30000001A000000009999999JOSE ROBERTO PEREZ HURTADO                                                                           20130119                                
30000001A000000009999999JOSE ROBERTO PEREZ HURTADO                                                                           20130119                                
30000001A000000009999999JOSE ROBERTO PEREZ HURTADO                                                                           20130119                                
30000001A000000009999999JOSE ROBERTO PEREZ HURTADO                                                                           20130119                                
30000001A000000009999999JOSE ROBERTO PEREZ HURTADO                                                                           20130119                                
30000001A000000019999999JOSE ROBERTO PEREZ HURTADO                                                                           20130119                                
30000001A000000039999999JOSE ROBERTO PEREZ HURTADO                                                                           20130119                                
30000001A000000009999999JOSE ROBERTO PEREZ HURTADO                                                                           20130119                                
30000001A000000009999999JOSE ROBERTO PEREZ HURTADO                                                                           20130119                                
30000001A000000009999999JOSE ROBERTO PEREZ HURTADO                                                                           20130119                                
30000001A000000009999999JOSE ROBERTO PEREZ HURTADO                                                                           20130119                                
30000001A000000009999999JOSE ROBERTO PEREZ HURTADO                                                                           20130119                                
30000001A000000009999999JOSE ROBERTO PEREZ HURTADO                                                                           20130119                                
30000001A000000009999999JOSE ROBERTO PEREZ HURTADO                                                                           20130119                                
30000001A000000009999999JOSE ROBERTO PEREZ HURTADO                                                                           20130119                                
30000001A000000009999999JOSE ROBERTO PEREZ HURTADO                                                                           20130119                                
30000001A000000009999999JOSE ROBERTO PEREZ HURTADO                                                                           20130119                                
30000001A000000009999999JOSE ROBERTO PEREZ HURTADO                                                                           20130119                                
30000001A000000019999999JOSE ROBERTO PEREZ HURTADO                                                                           20130119                                
30000001A000000009999999JOSE ROBERTO PEREZ HURTADO                                                                           20130119                                
30000001A000000009999999JOSE ROBERTO PEREZ HURTADO                                                                           20130119                                
30000001A000000009999999JOSE ROBERTO PEREZ HURTADO                                                                           20130119                                
30000001A000000009999999JOSE ROBERTO PEREZ HURTADO                                                                           20130119                                
30000001A000000009999999JOSE ROBERTO PEREZ HURTADO                                                                           20130119                                
30000001A000000009999999JOSE ROBERTO PEREZ HURTADO                                                                           20130119                                
30000001A000000009999999JOSE ROBERTO PEREZ HURTADO                                                                           20130119                                
30000001A000000009999999JOSE ROBERTO PEREZ HURTADO                                                                           20130119                                
30000001A000000009999999JOSE ROBERTO PEREZ HURTADO                                                                           20130119                                
30000001A000000219999999JOSE ROBERTO PEREZ HURTADO                                                                           20130119                                
30000001A000000009999999JOSE ROBERTO PEREZ HURTADO                                                                           20130119                                
30000001A000000009999999JOSE ROBERTO PEREZ HURTADO                                                                           20130119                                
30000001A000000009999999JOSE ROBERTO PEREZ HURTADO                                                                           20130119                                
30000001A000000009999999JOSE ROBERTO PEREZ HURTADO                                                                           20130119                                
30000001A000000009999999JOSE ROBERTO PEREZ HURTADO                                                                           20130119                                
30000001A000000009999999JOSE ROBERTO PEREZ HURTADO                                                                           20130119                                
30000001A000000009999999JOSE ROBERTO PEREZ HURTADO                                                                           20130119                                
30000001A000000009999999JOSE ROBERTO PEREZ HURTADO                                                                           20130119                                
30000001A000000009999999JOSE ROBERTO PEREZ HURTADO                                                                           20130119                                
30000001A000000009999999JOSE ROBERTO PEREZ HURTADO                                                                           20130119                                
30000001A000000009999999JOSE ROBERTO PEREZ HURTADO                                                                           20130119                                
30000001A000000009999999JOSE ROBERTO PEREZ HURTADO                                                                           20130119                                
30000001A000000009999999JOSE ROBERTO PEREZ HURTADO                                                                           20130119                                
30000001A000000009999999JOSE ROBERTO PEREZ HURTADO                                                                           20130119                                
30000001A000000049999999JOSE ROBERTO PEREZ HURTADO                                                                           20130119                                
30000001A000000009999999JOSE ROBERTO PEREZ HURTADO                                                                           20130119                                
30000001A000000009999999JOSE ROBERTO PEREZ HURTADO                                                                           20130119                                
30000001A000000079999999JOSE ROBERTO PEREZ HURTADO                                                                           20130119                                
30000001A000000009999999JOSE ROBERTO PEREZ HURTADO                                                                           20130119                                
30000001A000000009999999JOSE ROBERTO PEREZ HURTADO                                                                           20130119                                
30000001A000000009999999JOSE ROBERTO PEREZ HURTADO                                                                           20130119                                
30000001A000000009999999JOSE ROBERTO PEREZ HURTADO                                                                           20130119                                
30000001A000000009999999JOSE ROBERTO PEREZ HURTADO                                                                           20130119                                
30000001A000000009999999JOSE ROBERTO PEREZ HURTADO                                                                           20130119                                
30000001A000000009999999JOSE ROBERTO PEREZ HURTADO                                                                           20130119                                
30000001A000000009999999JOSE ROBERTO PEREZ HURTADO                                                                           20130119                                
30000001A000000009999999JOSE ROBERTO PEREZ HURTADO                                                                           20130119                                
30000001A000000009999999JOSE ROBERTO PEREZ HURTADO                                                                           20130119                                
30000001A000000009999999JOSE ROBERTO PEREZ HURTADO                                                                           20130119                                
30000001A000000009999999JOSE ROBERTO PEREZ HURTADO                                                                           20130119                                
30000001A000000009999999JOSE ROBERTO PEREZ HURTADO                                                                           20130119                                
30000001A000000009999999JOSE ROBERTO PEREZ HURTADO                                                                           20130119                                
30000001A000000009999999JOSE ROBERTO PEREZ HURTADO                                                                           20130119                                
30000001A000000009999999JOSE ROBERTO PEREZ HURTADO                                                                           20130119                                
30000001A000000009999999JOSE ROBERTO PEREZ HURTADO                                                                           20130119                                
30000001A000000009999999JOSE ROBERTO PEREZ HURTADO                                                                           20130119                                
30000001A000000019999999JOSE ROBERTO PEREZ HURTADO                                                                           20130119                                
30000001A000000009999999JOSE ROBERTO PEREZ HURTADO                                                                           20130119                                
30000001A000000019999999JOSE ROBERTO PEREZ HURTADO                                                                           20130119                                
30000001A000000009999999JOSE ROBERTO PEREZ HURTADO                                                                           20130119                                
30000001A000000019999999JOSE ROBERTO PEREZ HURTADO                                                                           20130119                                
30000001A000000009999999JOSE ROBERTO PEREZ HURTADO                                                                           20130119                                
30000001A000000039999999JOSE ROBERTO PEREZ HURTADO                                                                           20130119                                
30000001A000000009999999JOSE ROBERTO PEREZ HURTADO                                                                           20130119                                
30000001A000000089999999JOSE ROBERTO PEREZ HURTADO                                                                           20130119                                
30000001A000000009999999JOSE ROBERTO PEREZ HURTADO                                                                           20130119                                
30000001A000000009999999JOSE ROBERTO PEREZ HURTADO                                                                           20130119                                
30000001A000000009999999JOSE ROBERTO PEREZ HURTADO                                                                           20130119                                
30000001A000000059999999JOSE ROBERTO PEREZ HURTADO                                                                           20130119                                
30000001A000000059999999JOSE ROBERTO PEREZ HURTADO                                                                           20130119                                
30000001A000000069999999JOSE ROBERTO PEREZ HURTADO                                                                           20130119                                
30000001A000000059999999JOSE ROBERTO PEREZ HURTADO                                                                           20130119                                
30000001A000000079999999JOSE ROBERTO PEREZ HURTADO                                                                           20130119                                
30000001A000000049999999JOSE ROBERTO PEREZ HURTADO                                                                           20130119                                
30000001A000000009999999JOSE ROBERTO PEREZ HURTADO                                                                           20130119                                
30000001A000000039999999JOSE ROBERTO PEREZ HURTADO                                                                           20130119                                
30000001A000000009999999JOSE ROBERTO PEREZ HURTADO                                                                           20130119                                
30000001A000000009999999JOSE ROBERTO PEREZ HURTADO                                                                           20130119                                
30000001A000000009999999JOSE ROBERTO PEREZ HURTADO                                                                           20130119                                
30000001A000000009999999JOSE ROBERTO PEREZ HURTADO                                                                           20130119                                
30000001A000000009999999JOSE ROBERTO PEREZ HURTADO                                                                           20130119                                
30000001A000000009999999JOSE ROBERTO PEREZ HURTADO                                                                           20130119                                
30000001A000000009999999JOSE ROBERTO PEREZ HURTADO                                                                           20130119                                
30000001A000000009999999JOSE ROBERTO PEREZ HURTADO                                                                           20130119                                
30000001A000000009999999JOSE ROBERTO PEREZ HURTADO                                                                           20130119                                
30000001A000000009999999JOSE ROBERTO PEREZ HURTADO                                                                           20130119                                
30000001A000000009999999JOSE ROBERTO PEREZ HURTADO                                                                           20130119                                
30000001A000000009999999JOSE ROBERTO PEREZ HURTADO                                                                           20130119                                
30000001A000000009999999JOSE ROBERTO PEREZ HURTADO                                                                           20130119                                
30000001A000000009999999JOSE ROBERTO PEREZ HURTADO                                                                           20130119                                
30000001A000000009999999JOSE ROBERTO PEREZ HURTADO                                                                           20130119                                
30000001A000000009999999JOSE ROBERTO PEREZ HURTADO                                                                           20130119                                
30000001A000000009999999JOSE ROBERTO PEREZ HURTADO                                                                           20130119                                
30000001A000000009999999JOSE ROBERTO PEREZ HURTADO                                                                           20130119                                
30000001A000000049999999JOSE ROBERTO PEREZ HURTADO                                                                           20130119                                
30000001A000000009999999JOSE ROBERTO PEREZ HURTADO                                                                           20130119                                
30000001A000000009999999JOSE ROBERTO PEREZ HURTADO                                                                           20130119                                
30000001A000000009999999JOSE ROBERTO PEREZ HURTADO                                                                           20130119                                
30000001A000000009999999JOSE ROBERTO PEREZ HURTADO                                                                           20130119                                
30000001A000000009999999JOSE ROBERTO PEREZ HURTADO                                                                           20130119                                
30000001A000000019999999JOSE ROBERTO PEREZ HURTADO                                                                           20130119                                
30000001A000000039999999JOSE ROBERTO PEREZ HURTADO                                                                           20130119                                
30000001A000000009999999JOSE ROBERTO PEREZ HURTADO                                                                           20130119                                
30000001A000000009999999JOSE ROBERTO PEREZ HURTADO                                                                           20130119                                
30000001A000000009999999JOSE ROBERTO PEREZ HURTADO                                                                           20130119                                
30000001A000000009999999JOSE ROBERTO PEREZ HURTADO                                                                           20130119                                
30000001A000000009999999JOSE ROBERTO PEREZ HURTADO                                                                           20130119                                
30000001A000000009999999JOSE ROBERTO PEREZ HURTADO                                                                           20130119                                
30000001A000000009999999JOSE ROBERTO PEREZ HURTADO                                                                           20130119                                
30000001A000000009999999JOSE ROBERTO PEREZ HURTADO                                                                           20130119                                
30000001A000000009999999JOSE ROBERTO PEREZ HURTADO                                                                           20130119                                
30000001A000000009999999JOSE ROBERTO PEREZ HURTADO                                                                           20130119                                
30000001A000000009999999JOSE ROBERTO PEREZ HURTADO                                                                           20130119                                
30000001A000000019999999JOSE ROBERTO PEREZ HURTADO                                                                           20130119                                
30000001A000000009999999JOSE ROBERTO PEREZ HURTADO                                                                           20130119                                
30000001A000000009999999JOSE ROBERTO PEREZ HURTADO                                                                           20130119                                
30000001A000000009999999JOSE ROBERTO PEREZ HURTADO                                                                           20130119                                
30000001A000000009999999JOSE ROBERTO PEREZ HURTADO                                                                           20130119                                
30000001A000000009999999JOSE ROBERTO PEREZ HURTADO                                                                           20130119                                
30000001A000000009999999JOSE ROBERTO PEREZ HURTADO                                                                           20130119                                
30000001A000000009999999JOSE ROBERTO PEREZ HURTADO                                                                           20130119                                
30000001A000000009999999JOSE ROBERTO PEREZ HURTADO                                                                           20130119                                
30000001A000000009999999JOSE ROBERTO PEREZ HURTADO                                                                           20130119                                
30000001A000000219999999JOSE ROBERTO PEREZ HURTADO                                                                           20130119                                
30000001A000000009999999JOSE ROBERTO PEREZ HURTADO                                                                           20130119                                
30000001A000000009999999JOSE ROBERTO PEREZ HURTADO                                                                           20130119                                
30000001A000000009999999JOSE ROBERTO PEREZ HURTADO                                                                           20130119                                
30000001A000000009999999JOSE ROBERTO PEREZ HURTADO                                                                           20130119                                
30000001A000000009999999JOSE ROBERTO PEREZ HURTADO                                                                           20130119                                
30000001A000000009999999JOSE ROBERTO PEREZ HURTADO                                                                           20130119                                
30000001A000000009999999JOSE ROBERTO PEREZ HURTADO                                                                           20130119                                
30000001A000000009999999JOSE ROBERTO PEREZ HURTADO                                                                           20130119                                
30000001A000000009999999JOSE ROBERTO PEREZ HURTADO                                                                           20130119                                
30000001A000000009999999JOSE ROBERTO PEREZ HURTADO                                                                           20130119                                
30000001A000000009999999JOSE ROBERTO PEREZ HURTADO                                                                           20130119                                
30000001A000000009999999JOSE ROBERTO PEREZ HURTADO                                                                           20130119                                
30000001A000000009999999JOSE ROBERTO PEREZ HURTADO                                                                           20130119                                
30000001A000000009999999JOSE ROBERTO PEREZ HURTADO                                                                           20130119                                
30000001A000000049999999JOSE ROBERTO PEREZ HURTADO                                                                           20130119                                
30000001A000000009999999JOSE ROBERTO PEREZ HURTADO                                                                           20130119                                
30000001A000000009999999JOSE ROBERTO PEREZ HURTADO                                                                           20130119                                
30000001A000000079999999JOSE ROBERTO PEREZ HURTADO                                                                           20130119                                
30000001A000000009999999JOSE ROBERTO PEREZ HURTADO                                                                           20130119                                
30000001A000000009999999JOSE ROBERTO PEREZ HURTADO                                                                           20130119                                
30000001A000000009999999JOSE ROBERTO PEREZ HURTADO                                                                           20130119                                
30000001A000000009999999JOSE ROBERTO PEREZ HURTADO                                                                           20130119                                
30000001A000000009999999JOSE ROBERTO PEREZ HURTADO                                                                           20130119                                
30000001A000000009999999JOSE ROBERTO PEREZ HURTADO                                                                           20130119                                
30000001A000000009999999JOSE ROBERTO PEREZ HURTADO                                                                           20130119                                
30000001A000000009999999JOSE ROBERTO PEREZ HURTADO                                                                           20130119                                
30000001A000000009999999JOSE ROBERTO PEREZ HURTADO                                                                           20130119                                
30000001A000000009999999JOSE ROBERTO PEREZ HURTADO                                                                           20130119                                
30000001A000000009999999JOSE ROBERTO PEREZ HURTADO                                                                           20130119                                
30000001A000000009999999JOSE ROBERTO PEREZ HURTADO                                                                           20130119                                
30000001A000000009999999JOSE ROBERTO PEREZ HURTADO                                                                           20130119                                
30000001A000000009999999JOSE ROBERTO PEREZ HURTADO                                                                           20130119                                
30000001A000000009999999JOSE ROBERTO PEREZ HURTADO                                                                           20130119                                
30000001A000000009999999JOSE ROBERTO PEREZ HURTADO                                                                           20130119                                
30000001A000000009999999JOSE ROBERTO PEREZ HURTADO                                                                           20130119                                
30000001A000000009999999JOSE ROBERTO PEREZ HURTADO                                                                           20130119                                
30000001A000000019999999JOSE ROBERTO PEREZ HURTADO                                                                           20130119                                
30000001A000000009999999JOSE ROBERTO PEREZ HURTADO                                                                           20130119                                
